{
  "contractName": "UONFTMuseum",
  "abi": [
    {
      "inputs": [],
      "stateMutability": "nonpayable",
      "type": "constructor"
    },
    {
      "anonymous": false,
      "inputs": [
        {
          "indexed": true,
          "internalType": "address",
          "name": "owner",
          "type": "address"
        },
        {
          "indexed": true,
          "internalType": "address",
          "name": "approved",
          "type": "address"
        },
        {
          "indexed": true,
          "internalType": "uint256",
          "name": "tokenId",
          "type": "uint256"
        }
      ],
      "name": "Approval",
      "type": "event"
    },
    {
      "anonymous": false,
      "inputs": [
        {
          "indexed": true,
          "internalType": "address",
          "name": "owner",
          "type": "address"
        },
        {
          "indexed": true,
          "internalType": "address",
          "name": "operator",
          "type": "address"
        },
        {
          "indexed": false,
          "internalType": "bool",
          "name": "approved",
          "type": "bool"
        }
      ],
      "name": "ApprovalForAll",
      "type": "event"
    },
    {
      "anonymous": false,
      "inputs": [
        {
          "indexed": false,
          "internalType": "uint256",
          "name": "amount",
          "type": "uint256"
        }
      ],
      "name": "Donate",
      "type": "event"
    },
    {
      "anonymous": false,
      "inputs": [
        {
          "indexed": true,
          "internalType": "address",
          "name": "from",
          "type": "address"
        },
        {
          "indexed": true,
          "internalType": "address",
          "name": "to",
          "type": "address"
        },
        {
          "indexed": true,
          "internalType": "uint256",
          "name": "tokenId",
          "type": "uint256"
        }
      ],
      "name": "Transfer",
      "type": "event"
    },
    {
      "anonymous": false,
      "inputs": [
        {
          "indexed": true,
          "internalType": "uint256",
          "name": "id",
          "type": "uint256"
        }
      ],
      "name": "auctionItembought",
      "type": "event"
    },
    {
      "anonymous": false,
      "inputs": [
        {
          "indexed": false,
          "internalType": "uint256",
          "name": "id",
          "type": "uint256"
        },
        {
          "indexed": false,
          "internalType": "bool",
          "name": "auctionBuyer",
          "type": "bool"
        },
        {
          "indexed": false,
          "internalType": "bool",
          "name": "member",
          "type": "bool"
        },
        {
          "indexed": false,
          "internalType": "uint256",
          "name": "OBGCoins",
          "type": "uint256"
        },
        {
          "indexed": false,
          "internalType": "uint256",
          "name": "auctionValue",
          "type": "uint256"
        }
      ],
      "name": "userCreated",
      "type": "event"
    },
    {
      "inputs": [
        {
          "internalType": "address",
          "name": "to",
          "type": "address"
        },
        {
          "internalType": "uint256",
          "name": "tokenId",
          "type": "uint256"
        }
      ],
      "name": "approve",
      "outputs": [],
      "stateMutability": "nonpayable",
      "type": "function"
    },
    {
      "inputs": [
        {
          "internalType": "address",
          "name": "owner",
          "type": "address"
        }
      ],
      "name": "balanceOf",
      "outputs": [
        {
          "internalType": "uint256",
          "name": "",
          "type": "uint256"
        }
      ],
      "stateMutability": "view",
      "type": "function",
      "constant": true
    },
    {
      "inputs": [],
      "name": "baseURI",
      "outputs": [
        {
          "internalType": "string",
          "name": "",
          "type": "string"
        }
      ],
      "stateMutability": "view",
      "type": "function",
      "constant": true
    },
    {
      "inputs": [
        {
          "internalType": "uint256",
          "name": "tokenId",
          "type": "uint256"
        }
      ],
      "name": "getApproved",
      "outputs": [
        {
          "internalType": "address",
          "name": "",
          "type": "address"
        }
      ],
      "stateMutability": "view",
      "type": "function",
      "constant": true
    },
    {
      "inputs": [
        {
          "internalType": "uint256",
          "name": "",
          "type": "uint256"
        }
      ],
      "name": "idToaddress",
      "outputs": [
        {
          "internalType": "address",
          "name": "",
          "type": "address"
        }
      ],
      "stateMutability": "view",
      "type": "function",
      "constant": true
    },
    {
      "inputs": [
        {
          "internalType": "address",
          "name": "owner",
          "type": "address"
        },
        {
          "internalType": "address",
          "name": "operator",
          "type": "address"
        }
      ],
      "name": "isApprovedForAll",
      "outputs": [
        {
          "internalType": "bool",
          "name": "",
          "type": "bool"
        }
      ],
      "stateMutability": "view",
      "type": "function",
      "constant": true
    },
    {
      "inputs": [],
      "name": "name",
      "outputs": [
        {
          "internalType": "string",
          "name": "",
          "type": "string"
        }
      ],
      "stateMutability": "view",
      "type": "function",
      "constant": true
    },
    {
      "inputs": [
        {
          "internalType": "uint256",
          "name": "tokenId",
          "type": "uint256"
        }
      ],
      "name": "ownerOf",
      "outputs": [
        {
          "internalType": "address",
          "name": "",
          "type": "address"
        }
      ],
      "stateMutability": "view",
      "type": "function",
      "constant": true
    },
    {
      "inputs": [
        {
          "internalType": "address",
          "name": "from",
          "type": "address"
        },
        {
          "internalType": "address",
          "name": "to",
          "type": "address"
        },
        {
          "internalType": "uint256",
          "name": "tokenId",
          "type": "uint256"
        }
      ],
      "name": "safeTransferFrom",
      "outputs": [],
      "stateMutability": "nonpayable",
      "type": "function"
    },
    {
      "inputs": [
        {
          "internalType": "address",
          "name": "from",
          "type": "address"
        },
        {
          "internalType": "address",
          "name": "to",
          "type": "address"
        },
        {
          "internalType": "uint256",
          "name": "tokenId",
          "type": "uint256"
        },
        {
          "internalType": "bytes",
          "name": "_data",
          "type": "bytes"
        }
      ],
      "name": "safeTransferFrom",
      "outputs": [],
      "stateMutability": "nonpayable",
      "type": "function"
    },
    {
      "inputs": [
        {
          "internalType": "address",
          "name": "operator",
          "type": "address"
        },
        {
          "internalType": "bool",
          "name": "approved",
          "type": "bool"
        }
      ],
      "name": "setApprovalForAll",
      "outputs": [],
      "stateMutability": "nonpayable",
      "type": "function"
    },
    {
      "inputs": [
        {
          "internalType": "bytes4",
          "name": "interfaceId",
          "type": "bytes4"
        }
      ],
      "name": "supportsInterface",
      "outputs": [
        {
          "internalType": "bool",
          "name": "",
          "type": "bool"
        }
      ],
      "stateMutability": "view",
      "type": "function",
      "constant": true
    },
    {
      "inputs": [],
      "name": "symbol",
      "outputs": [
        {
          "internalType": "string",
          "name": "",
          "type": "string"
        }
      ],
      "stateMutability": "view",
      "type": "function",
      "constant": true
    },
    {
      "inputs": [],
      "name": "token",
      "outputs": [
        {
          "internalType": "contract IERC20",
          "name": "",
          "type": "address"
        }
      ],
      "stateMutability": "view",
      "type": "function",
      "constant": true
    },
    {
      "inputs": [
        {
          "internalType": "uint256",
          "name": "index",
          "type": "uint256"
        }
      ],
      "name": "tokenByIndex",
      "outputs": [
        {
          "internalType": "uint256",
          "name": "",
          "type": "uint256"
        }
      ],
      "stateMutability": "view",
      "type": "function",
      "constant": true
    },
    {
      "inputs": [
        {
          "internalType": "address",
          "name": "owner",
          "type": "address"
        },
        {
          "internalType": "uint256",
          "name": "index",
          "type": "uint256"
        }
      ],
      "name": "tokenOfOwnerByIndex",
      "outputs": [
        {
          "internalType": "uint256",
          "name": "",
          "type": "uint256"
        }
      ],
      "stateMutability": "view",
      "type": "function",
      "constant": true
    },
    {
      "inputs": [
        {
          "internalType": "uint256",
          "name": "tokenId",
          "type": "uint256"
        }
      ],
      "name": "tokenURI",
      "outputs": [
        {
          "internalType": "string",
          "name": "",
          "type": "string"
        }
      ],
      "stateMutability": "view",
      "type": "function",
      "constant": true
    },
    {
      "inputs": [],
      "name": "totalAuctionvalue",
      "outputs": [
        {
          "internalType": "uint256",
          "name": "",
          "type": "uint256"
        }
      ],
      "stateMutability": "view",
      "type": "function",
      "constant": true
    },
    {
      "inputs": [],
      "name": "totalSupply",
      "outputs": [
        {
          "internalType": "uint256",
          "name": "",
          "type": "uint256"
        }
      ],
      "stateMutability": "view",
      "type": "function",
      "constant": true
    },
    {
      "inputs": [
        {
          "internalType": "address",
          "name": "from",
          "type": "address"
        },
        {
          "internalType": "address",
          "name": "to",
          "type": "address"
        },
        {
          "internalType": "uint256",
          "name": "tokenId",
          "type": "uint256"
        }
      ],
      "name": "transferFrom",
      "outputs": [],
      "stateMutability": "nonpayable",
      "type": "function"
    },
    {
      "inputs": [
        {
          "internalType": "address",
          "name": "",
          "type": "address"
        }
      ],
      "name": "users",
      "outputs": [
        {
          "internalType": "uint256",
          "name": "id",
          "type": "uint256"
        },
        {
          "internalType": "bool",
          "name": "auctionBuyer",
          "type": "bool"
        },
        {
          "internalType": "bool",
          "name": "member",
          "type": "bool"
        },
        {
          "internalType": "uint256",
          "name": "OBGCoins",
          "type": "uint256"
        },
        {
          "internalType": "uint256",
          "name": "auctionValue",
          "type": "uint256"
        }
      ],
      "stateMutability": "view",
      "type": "function",
      "constant": true
    },
    {
      "inputs": [],
      "name": "createUser",
      "outputs": [],
      "stateMutability": "nonpayable",
      "type": "function"
    },
    {
      "inputs": [
        {
          "internalType": "address",
          "name": "memberAddress",
          "type": "address"
        }
      ],
      "name": "memberSignup",
      "outputs": [],
      "stateMutability": "nonpayable",
      "type": "function"
    },
    {
      "inputs": [
        {
          "internalType": "address",
          "name": "_from",
          "type": "address"
        },
        {
          "internalType": "address",
          "name": "_to",
          "type": "address"
        },
        {
          "internalType": "uint256",
          "name": "_tokenId",
          "type": "uint256"
        }
      ],
      "name": "auctioneerTransfer",
      "outputs": [],
      "stateMutability": "payable",
      "type": "function",
      "payable": true
    },
    {
      "inputs": [
        {
          "internalType": "address",
          "name": "_to",
          "type": "address"
        },
        {
          "internalType": "string",
          "name": "_tokenURI",
          "type": "string"
        }
      ],
      "name": "auctioneerMint",
      "outputs": [],
      "stateMutability": "payable",
      "type": "function",
      "payable": true
    },
    {
      "inputs": [],
      "name": "giveTokens",
      "outputs": [],
      "stateMutability": "payable",
      "type": "function",
      "payable": true
    },
    {
      "inputs": [],
      "name": "totalMint",
      "outputs": [
        {
          "internalType": "uint256",
          "name": "",
          "type": "uint256"
        }
      ],
      "stateMutability": "view",
      "type": "function",
      "constant": true
    },
    {
      "inputs": [
        {
          "internalType": "address",
          "name": "_to",
          "type": "address"
        },
        {
          "internalType": "string",
          "name": "_tokenURI",
          "type": "string"
        }
      ],
      "name": "mintAuctionnft",
      "outputs": [],
      "stateMutability": "nonpayable",
      "type": "function"
    }
  ],
  "bytecode": "0x60806040523480156200001157600080fd5b506040518060400160405280600881526020017f554f4d757365756d0000000000000000000000000000000000000000000000008152506040518060400160405280600581526020017f554f4e4654000000000000000000000000000000000000000000000000000000815250620000966301ffc9a760e01b6200018460201b60201c565b8160069080519060200190620000ae9291906200028d565b508060079080519060200190620000c79291906200028d565b50620000e06380ac58cd60e01b6200018460201b60201c565b620000f8635b5e139f60e01b6200018460201b60201c565b6200011063780e9d6360e01b6200018460201b60201c565b5050604051620001209062000314565b604051809103906000f0801580156200013d573d6000803e3d6000fd5b50600a60006101000a81548173ffffffffffffffffffffffffffffffffffffffff021916908373ffffffffffffffffffffffffffffffffffffffff16021790555062000341565b63ffffffff60e01b817bffffffffffffffffffffffffffffffffffffffffffffffffffffffff1916141562000221576040517f08c379a000000000000000000000000000000000000000000000000000000000815260040180806020018281038252601c8152602001807f4552433136353a20696e76616c696420696e746572666163652069640000000081525060200191505060405180910390fd5b6001600080837bffffffffffffffffffffffffffffffffffffffffffffffffffffffff19167bffffffffffffffffffffffffffffffffffffffffffffffffffffffff1916815260200190815260200160002060006101000a81548160ff02191690831515021790555050565b828054600181600116156101000203166002900490600052602060002090601f016020900481019282601f10620002d057805160ff191683800117855562000301565b8280016001018555821562000301579182015b8281111562000300578251825591602001919060010190620002e3565b5b50905062000310919062000322565b5090565b610d79806200407683390190565b5b808211156200033d57600081600090555060010162000323565b5090565b613d2580620003516000396000f3fe6080604052600436106101b75760003560e01c80636c0360eb116100ec578063b88d4fde1161008a578063e7ea71d211610064578063e7ea71d214610c8c578063e985e9c514610cfa578063ecac2f8314610d81578063fc0c546a14610dd2576101b7565b8063b88d4fde14610a61578063c87b56dd14610b73578063cc0f38c414610c27576101b7565b806395d89b41116100c657806395d89b41146108e5578063a22cb46514610975578063a87430ba146109d2578063ae909cff14610a57576101b7565b80636c0360eb1461070857806370a082311461079857806387910079146107fd576101b7565b806323b872dd1161015957806342842e0e1161013357806342842e0e146105ae5780634f6ccce71461062957806359a7715a146106785780636352211e146106a3576101b7565b806323b872dd146104ad57806325ad91ce146105285780632f745c591461053f576101b7565b8063095ea7b311610195578063095ea7b3146103215780630fa4a1631461037c57806318160ddd146103a75780632042a8f2146103d2576101b7565b806301ffc9a7146101bc57806306fdde031461022c578063081812fc146102bc575b600080fd5b3480156101c857600080fd5b50610214600480360360208110156101df57600080fd5b8101908080357bffffffffffffffffffffffffffffffffffffffffffffffffffffffff19169060200190929190505050610e13565b60405180821515815260200191505060405180910390f35b34801561023857600080fd5b50610241610e7a565b6040518080602001828103825283818151815260200191508051906020019080838360005b83811015610281578082015181840152602081019050610266565b50505050905090810190601f1680156102ae5780820380516001836020036101000a031916815260200191505b509250505060405180910390f35b3480156102c857600080fd5b506102f5600480360360208110156102df57600080fd5b8101908080359060200190929190505050610f1c565b604051808273ffffffffffffffffffffffffffffffffffffffff16815260200191505060405180910390f35b34801561032d57600080fd5b5061037a6004803603604081101561034457600080fd5b81019080803573ffffffffffffffffffffffffffffffffffffffff16906020019092919080359060200190929190505050610fb7565b005b34801561038857600080fd5b506103916110fb565b6040518082815260200191505060405180910390f35b3480156103b357600080fd5b506103bc611101565b6040518082815260200191505060405180910390f35b6104ab600480360360408110156103e857600080fd5b81019080803573ffffffffffffffffffffffffffffffffffffffff1690602001909291908035906020019064010000000081111561042557600080fd5b82018360208201111561043757600080fd5b8035906020019184600183028401116401000000008311171561045957600080fd5b91908080601f016020809104026020016040519081016040528093929190818152602001838380828437600081840152601f19601f820116905080830192505050505050509192919290505050611112565b005b3480156104b957600080fd5b50610526600480360360608110156104d057600080fd5b81019080803573ffffffffffffffffffffffffffffffffffffffff169060200190929190803573ffffffffffffffffffffffffffffffffffffffff16906020019092919080359060200190929190505050611385565b005b34801561053457600080fd5b5061053d6113fb565b005b34801561054b57600080fd5b506105986004803603604081101561056257600080fd5b81019080803573ffffffffffffffffffffffffffffffffffffffff1690602001909291908035906020019092919050505061159d565b6040518082815260200191505060405180910390f35b3480156105ba57600080fd5b50610627600480360360608110156105d157600080fd5b81019080803573ffffffffffffffffffffffffffffffffffffffff169060200190929190803573ffffffffffffffffffffffffffffffffffffffff169060200190929190803590602001909291905050506115f8565b005b34801561063557600080fd5b506106626004803603602081101561064c57600080fd5b8101908080359060200190929190505050611618565b6040518082815260200191505060405180910390f35b34801561068457600080fd5b5061068d61163b565b6040518082815260200191505060405180910390f35b3480156106af57600080fd5b506106dc600480360360208110156106c657600080fd5b810190808035906020019092919050505061164a565b604051808273ffffffffffffffffffffffffffffffffffffffff16815260200191505060405180910390f35b34801561071457600080fd5b5061071d611681565b6040518080602001828103825283818151815260200191508051906020019080838360005b8381101561075d578082015181840152602081019050610742565b50505050905090810190601f16801561078a5780820380516001836020036101000a031916815260200191505b509250505060405180910390f35b3480156107a457600080fd5b506107e7600480360360208110156107bb57600080fd5b81019080803573ffffffffffffffffffffffffffffffffffffffff169060200190929190505050611723565b6040518082815260200191505060405180910390f35b34801561080957600080fd5b506108e36004803603604081101561082057600080fd5b81019080803573ffffffffffffffffffffffffffffffffffffffff1690602001909291908035906020019064010000000081111561085d57600080fd5b82018360208201111561086f57600080fd5b8035906020019184600183028401116401000000008311171561089157600080fd5b91908080601f016020809104026020016040519081016040528093929190818152602001838380828437600081840152601f19601f8201169050808301925050505050505091929192905050506117f8565b005b3480156108f157600080fd5b506108fa611865565b6040518080602001828103825283818151815260200191508051906020019080838360005b8381101561093a57808201518184015260208101905061091f565b50505050905090810190601f1680156109675780820380516001836020036101000a031916815260200191505b509250505060405180910390f35b34801561098157600080fd5b506109d06004803603604081101561099857600080fd5b81019080803573ffffffffffffffffffffffffffffffffffffffff169060200190929190803515159060200190929190505050611907565b005b3480156109de57600080fd5b50610a21600480360360208110156109f557600080fd5b81019080803573ffffffffffffffffffffffffffffffffffffffff169060200190929190505050611abd565b60405180868152602001851515815260200184151581526020018381526020018281526020019550505050505060405180910390f35b610a5f611b0d565b005b348015610a6d57600080fd5b50610b7160048036036080811015610a8457600080fd5b81019080803573ffffffffffffffffffffffffffffffffffffffff169060200190929190803573ffffffffffffffffffffffffffffffffffffffff1690602001909291908035906020019092919080359060200190640100000000811115610aeb57600080fd5b820183602082011115610afd57600080fd5b80359060200191846001830284011164010000000083111715610b1f57600080fd5b91908080601f016020809104026020016040519081016040528093929190818152602001838380828437600081840152601f19601f820116905080830192505050505050509192919290505050611e2b565b005b348015610b7f57600080fd5b50610bac60048036036020811015610b9657600080fd5b8101908080359060200190929190505050611ea3565b6040518080602001828103825283818151815260200191508051906020019080838360005b83811015610bec578082015181840152602081019050610bd1565b50505050905090810190601f168015610c195780820380516001836020036101000a031916815260200191505b509250505060405180910390f35b348015610c3357600080fd5b50610c6060048036036020811015610c4a57600080fd5b8101908080359060200190929190505050612174565b604051808273ffffffffffffffffffffffffffffffffffffffff16815260200191505060405180910390f35b610cf860048036036060811015610ca257600080fd5b81019080803573ffffffffffffffffffffffffffffffffffffffff169060200190929190803573ffffffffffffffffffffffffffffffffffffffff169060200190929190803590602001909291905050506121a7565b005b348015610d0657600080fd5b50610d6960048036036040811015610d1d57600080fd5b81019080803573ffffffffffffffffffffffffffffffffffffffff169060200190929190803573ffffffffffffffffffffffffffffffffffffffff16906020019092919050505061241d565b60405180821515815260200191505060405180910390f35b348015610d8d57600080fd5b50610dd060048036036020811015610da457600080fd5b81019080803573ffffffffffffffffffffffffffffffffffffffff1690602001909291905050506124b1565b005b348015610dde57600080fd5b50610de7612661565b604051808273ffffffffffffffffffffffffffffffffffffffff16815260200191505060405180910390f35b6000806000837bffffffffffffffffffffffffffffffffffffffffffffffffffffffff19167bffffffffffffffffffffffffffffffffffffffffffffffffffffffff1916815260200190815260200160002060009054906101000a900460ff169050919050565b606060068054600181600116156101000203166002900480601f016020809104026020016040519081016040528092919081815260200182805460018160011615610100020316600290048015610f125780601f10610ee757610100808354040283529160200191610f12565b820191906000526020600020905b815481529060010190602001808311610ef557829003601f168201915b5050505050905090565b6000610f2782612687565b610f7c576040517f08c379a000000000000000000000000000000000000000000000000000000000815260040180806020018281038252602c815260200180613bee602c913960400191505060405180910390fd5b6004600083815260200190815260200160002060009054906101000a900473ffffffffffffffffffffffffffffffffffffffff169050919050565b6000610fc28261164a565b90508073ffffffffffffffffffffffffffffffffffffffff168373ffffffffffffffffffffffffffffffffffffffff161415611049576040517f08c379a0000000000000000000000000000000000000000000000000000000008152600401808060200182810382526021815260200180613c9e6021913960400191505060405180910390fd5b8073ffffffffffffffffffffffffffffffffffffffff166110686126a4565b73ffffffffffffffffffffffffffffffffffffffff1614806110975750611096816110916126a4565b61241d565b5b6110ec576040517f08c379a0000000000000000000000000000000000000000000000000000000008152600401808060200182810382526038815260200180613b416038913960400191505060405180910390fd5b6110f683836126ac565b505050565b600b5481565b600061110d6002612765565b905090565b34600b6000828254019250508190555060011515600e60008473ffffffffffffffffffffffffffffffffffffffff1673ffffffffffffffffffffffffffffffffffffffff16815260200190815260200160002060010160019054906101000a900460ff161515141561122f5761118882826117f8565b6001600e60008473ffffffffffffffffffffffffffffffffffffffff1673ffffffffffffffffffffffffffffffffffffffff16815260200190815260200160002060010160006101000a81548160ff02191690831515021790555034600e60008473ffffffffffffffffffffffffffffffffffffffff1673ffffffffffffffffffffffffffffffffffffffff16815260200190815260200160002060030181905550611381565b61123982826117f8565b600c600081548092919060010191905055506040518060a001604052806001600c540381526020016001151581526020016000151581526020016000815260200134815250600e60008473ffffffffffffffffffffffffffffffffffffffff1673ffffffffffffffffffffffffffffffffffffffff1681526020019081526020016000206000820151816000015560208201518160010160006101000a81548160ff02191690831515021790555060408201518160010160016101000a81548160ff02191690831515021790555060608201518160020155608082015181600301559050507f4859f5bed336f53808f5674db541ec639f4c24f3e6269e433fac369ad43df15e6001600c540360016000803460405180868152602001851515815260200184151581526020018381526020018281526020019550505050505060405180910390a15b5050565b6113966113906126a4565b8261277a565b6113eb576040517f08c379a0000000000000000000000000000000000000000000000000000000008152600401808060200182810382526031815260200180613cbf6031913960400191505060405180910390fd5b6113f683838361286e565b505050565b600c600081548092919060010191905055506040518060a001604052806001600c54038152602001600015158152602001600115158152602001600081526020016000815250600e60003373ffffffffffffffffffffffffffffffffffffffff1673ffffffffffffffffffffffffffffffffffffffff1681526020019081526020016000206000820151816000015560208201518160010160006101000a81548160ff02191690831515021790555060408201518160010160016101000a81548160ff021916908315150217905550606082015181600201556080820151816003015590505033600d60006001600c5403815260200190815260200160002060006101000a81548173ffffffffffffffffffffffffffffffffffffffff021916908373ffffffffffffffffffffffffffffffffffffffff1602179055507f4859f5bed336f53808f5674db541ec639f4c24f3e6269e433fac369ad43df15e6001600c54036000600160008060405180868152602001851515815260200184151581526020018381526020018281526020019550505050505060405180910390a1565b60006115f082600160008673ffffffffffffffffffffffffffffffffffffffff1673ffffffffffffffffffffffffffffffffffffffff168152602001908152602001600020612ab190919063ffffffff16565b905092915050565b61161383838360405180602001604052806000815250611e2b565b505050565b60008061162f836002612acb90919063ffffffff16565b50905080915050919050565b6000611645611101565b905090565b600061167a82604051806060016040528060298152602001613ba3602991396002612af79092919063ffffffff16565b9050919050565b606060098054600181600116156101000203166002900480601f0160208091040260200160405190810160405280929190818152602001828054600181600116156101000203166002900480156117195780601f106116ee57610100808354040283529160200191611719565b820191906000526020600020905b8154815290600101906020018083116116fc57829003601f168201915b5050505050905090565b60008073ffffffffffffffffffffffffffffffffffffffff168273ffffffffffffffffffffffffffffffffffffffff1614156117aa576040517f08c379a000000000000000000000000000000000000000000000000000000000815260040180806020018281038252602a815260200180613b79602a913960400191505060405180910390fd5b6117f1600160008473ffffffffffffffffffffffffffffffffffffffff1673ffffffffffffffffffffffffffffffffffffffff168152602001908152602001600020612b16565b9050919050565b60006118156001611807611101565b612b2b90919063ffffffff16565b90506118218382612bb3565b61182b8183612da7565b611833611b0d565b807f864e00e9683e833a0dafc24cb87b16d4b234b82526cb7b78e38752ed51bee18160405160405180910390a2505050565b606060078054600181600116156101000203166002900480601f0160208091040260200160405190810160405280929190818152602001828054600181600116156101000203166002900480156118fd5780601f106118d2576101008083540402835291602001916118fd565b820191906000526020600020905b8154815290600101906020018083116118e057829003601f168201915b5050505050905090565b61190f6126a4565b73ffffffffffffffffffffffffffffffffffffffff168273ffffffffffffffffffffffffffffffffffffffff1614156119b0576040517f08c379a00000000000000000000000000000000000000000000000000000000081526004018080602001828103825260198152602001807f4552433732313a20617070726f766520746f2063616c6c65720000000000000081525060200191505060405180910390fd5b80600560006119bd6126a4565b73ffffffffffffffffffffffffffffffffffffffff1673ffffffffffffffffffffffffffffffffffffffff16815260200190815260200160002060008473ffffffffffffffffffffffffffffffffffffffff1673ffffffffffffffffffffffffffffffffffffffff16815260200190815260200160002060006101000a81548160ff0219169083151502179055508173ffffffffffffffffffffffffffffffffffffffff16611a6a6126a4565b73ffffffffffffffffffffffffffffffffffffffff167f17307eab39ab6107e8899845ad3d59bd9653f200f220920489ca2b5937696c318360405180821515815260200191505060405180910390a35050565b600e6020528060005260406000206000915090508060000154908060010160009054906101000a900460ff16908060010160019054906101000a900460ff16908060020154908060030154905085565b6000670de0b6b3a764000090506000600a60009054906101000a900473ffffffffffffffffffffffffffffffffffffffff1673ffffffffffffffffffffffffffffffffffffffff166370a08231306040518263ffffffff1660e01b8152600401808273ffffffffffffffffffffffffffffffffffffffff16815260200191505060206040518083038186803b158015611ba557600080fd5b505afa158015611bb9573d6000803e3d6000fd5b505050506040513d6020811015611bcf57600080fd5b8101908080519060200190929190505050905060008211611c58576040517f08c379a00000000000000000000000000000000000000000000000000000000081526004018080602001828103825260118152602001807f4e6f7420656e6f75676820546f6b656e7300000000000000000000000000000081525060200191505060405180910390fd5b80821115611cce576040517f08c379a000000000000000000000000000000000000000000000000000000000815260040180806020018281038252600f8152602001807f546f6f206d616e7920746f6b656e73000000000000000000000000000000000081525060200191505060405180910390fd5b600a60009054906101000a900473ffffffffffffffffffffffffffffffffffffffff1673ffffffffffffffffffffffffffffffffffffffff1663a9059cbb33846040518363ffffffff1660e01b8152600401808373ffffffffffffffffffffffffffffffffffffffff16815260200182815260200192505050602060405180830381600087803b158015611d6157600080fd5b505af1158015611d75573d6000803e3d6000fd5b505050506040513d6020811015611d8b57600080fd5b8101908080519060200190929190505050506000600e60003373ffffffffffffffffffffffffffffffffffffffff1673ffffffffffffffffffffffffffffffffffffffff16815260200190815260200160002090508281600201540181600201819055507f33ac262747c8397a2c737ef15aa625b857fa57c6987e46fe8590677c9a3b7a2e836040518082815260200191505060405180910390a1505050565b611e3c611e366126a4565b8361277a565b611e91576040517f08c379a0000000000000000000000000000000000000000000000000000000008152600401808060200182810382526031815260200180613cbf6031913960400191505060405180910390fd5b611e9d84848484612e31565b50505050565b6060611eae82612687565b611f03576040517f08c379a000000000000000000000000000000000000000000000000000000000815260040180806020018281038252602f815260200180613c6f602f913960400191505060405180910390fd5b6060600860008481526020019081526020016000208054600181600116156101000203166002900480601f016020809104026020016040519081016040528092919081815260200182805460018160011615610100020316600290048015611fac5780601f10611f8157610100808354040283529160200191611fac565b820191906000526020600020905b815481529060010190602001808311611f8f57829003601f168201915b505050505090506060611fbd611681565b9050600081511415611fd357819250505061216f565b6000825111156120a45780826040516020018083805190602001908083835b602083106120155780518252602082019150602081019050602083039250611ff2565b6001836020036101000a03801982511681845116808217855250505050505090500182805190602001908083835b602083106120665780518252602082019150602081019050602083039250612043565b6001836020036101000a038019825116818451168082178552505050505050905001925050506040516020818303038152906040529250505061216f565b806120ae85612ea3565b6040516020018083805190602001908083835b602083106120e457805182526020820191506020810190506020830392506120c1565b6001836020036101000a03801982511681845116808217855250505050505090500182805190602001908083835b602083106121355780518252602082019150602081019050602083039250612112565b6001836020036101000a03801982511681845116808217855250505050505090500192505050604051602081830303815290604052925050505b919050565b600d6020528060005260406000206000915054906101000a900473ffffffffffffffffffffffffffffffffffffffff1681565b34600b6000828254019250508190555060011515600e60008473ffffffffffffffffffffffffffffffffffffffff1673ffffffffffffffffffffffffffffffffffffffff16815260200190815260200160002060010160019054906101000a900460ff16151514156122c55761221e8383836115f8565b6001600e60008473ffffffffffffffffffffffffffffffffffffffff1673ffffffffffffffffffffffffffffffffffffffff16815260200190815260200160002060010160006101000a81548160ff02191690831515021790555034600e60008473ffffffffffffffffffffffffffffffffffffffff1673ffffffffffffffffffffffffffffffffffffffff16815260200190815260200160002060030181905550612418565b6122d08383836115f8565b600c600081548092919060010191905055506040518060a001604052806001600c540381526020016001151581526020016000151581526020016000815260200134815250600e60008473ffffffffffffffffffffffffffffffffffffffff1673ffffffffffffffffffffffffffffffffffffffff1681526020019081526020016000206000820151816000015560208201518160010160006101000a81548160ff02191690831515021790555060408201518160010160016101000a81548160ff02191690831515021790555060608201518160020155608082015181600301559050507f4859f5bed336f53808f5674db541ec639f4c24f3e6269e433fac369ad43df15e6001600c540360016000803460405180868152602001851515815260200184151581526020018381526020018281526020019550505050505060405180910390a15b505050565b6000600560008473ffffffffffffffffffffffffffffffffffffffff1673ffffffffffffffffffffffffffffffffffffffff16815260200190815260200160002060008373ffffffffffffffffffffffffffffffffffffffff1673ffffffffffffffffffffffffffffffffffffffff16815260200190815260200160002060009054906101000a900460ff16905092915050565b600c60008154809291906001019190505550600067016345785d8a000090506040518060a001604052806001600c540381526020016000151581526020016001151581526020018281526020016000815250600e60008473ffffffffffffffffffffffffffffffffffffffff1673ffffffffffffffffffffffffffffffffffffffff1681526020019081526020016000206000820151816000015560208201518160010160006101000a81548160ff02191690831515021790555060408201518160010160016101000a81548160ff021916908315150217905550606082015181600201556080820151816003015590505081600d60006001600c5403815260200190815260200160002060006101000a81548173ffffffffffffffffffffffffffffffffffffffff021916908373ffffffffffffffffffffffffffffffffffffffff1602179055507f4859f5bed336f53808f5674db541ec639f4c24f3e6269e433fac369ad43df15e6001600c54036001600084600060405180868152602001851515815260200184151581526020018381526020018281526020019550505050505060405180910390a15050565b600a60009054906101000a900473ffffffffffffffffffffffffffffffffffffffff1681565b600061269d826002612fea90919063ffffffff16565b9050919050565b600033905090565b816004600083815260200190815260200160002060006101000a81548173ffffffffffffffffffffffffffffffffffffffff021916908373ffffffffffffffffffffffffffffffffffffffff160217905550808273ffffffffffffffffffffffffffffffffffffffff1661271f8361164a565b73ffffffffffffffffffffffffffffffffffffffff167f8c5be1e5ebec7d5bd14f71427d1e84f3dd0314c0f7b2291e5b200ac8c7c3b92560405160405180910390a45050565b600061277382600001613004565b9050919050565b600061278582612687565b6127da576040517f08c379a000000000000000000000000000000000000000000000000000000000815260040180806020018281038252602c815260200180613b15602c913960400191505060405180910390fd5b60006127e58361164a565b90508073ffffffffffffffffffffffffffffffffffffffff168473ffffffffffffffffffffffffffffffffffffffff16148061285457508373ffffffffffffffffffffffffffffffffffffffff1661283c84610f1c565b73ffffffffffffffffffffffffffffffffffffffff16145b806128655750612864818561241d565b5b91505092915050565b8273ffffffffffffffffffffffffffffffffffffffff1661288e8261164a565b73ffffffffffffffffffffffffffffffffffffffff16146128fa576040517f08c379a0000000000000000000000000000000000000000000000000000000008152600401808060200182810382526029815260200180613c466029913960400191505060405180910390fd5b600073ffffffffffffffffffffffffffffffffffffffff168273ffffffffffffffffffffffffffffffffffffffff161415612980576040517f08c379a0000000000000000000000000000000000000000000000000000000008152600401808060200182810382526024815260200180613acb6024913960400191505060405180910390fd5b61298b838383613015565b6129966000826126ac565b6129e781600160008673ffffffffffffffffffffffffffffffffffffffff1673ffffffffffffffffffffffffffffffffffffffff16815260200190815260200160002061301a90919063ffffffff16565b50612a3981600160008573ffffffffffffffffffffffffffffffffffffffff1673ffffffffffffffffffffffffffffffffffffffff16815260200190815260200160002061303490919063ffffffff16565b50612a508183600261304e9092919063ffffffff16565b50808273ffffffffffffffffffffffffffffffffffffffff168473ffffffffffffffffffffffffffffffffffffffff167fddf252ad1be2c89b69c2b068fc378daa952ba7f163c4a11628f55a4df523b3ef60405160405180910390a4505050565b6000612ac08360000183613083565b60001c905092915050565b600080600080612ade8660000186613106565b915091508160001c8160001c9350935050509250929050565b6000612b0a846000018460001b8461319f565b60001c90509392505050565b6000612b2482600001613295565b9050919050565b600080828401905083811015612ba9576040517f08c379a000000000000000000000000000000000000000000000000000000000815260040180806020018281038252601b8152602001807f536166654d6174683a206164646974696f6e206f766572666c6f77000000000081525060200191505060405180910390fd5b8091505092915050565b600073ffffffffffffffffffffffffffffffffffffffff168273ffffffffffffffffffffffffffffffffffffffff161415612c56576040517f08c379a00000000000000000000000000000000000000000000000000000000081526004018080602001828103825260208152602001807f4552433732313a206d696e7420746f20746865207a65726f206164647265737381525060200191505060405180910390fd5b612c5f81612687565b15612cd2576040517f08c379a000000000000000000000000000000000000000000000000000000000815260040180806020018281038252601c8152602001807f4552433732313a20746f6b656e20616c7265616479206d696e7465640000000081525060200191505060405180910390fd5b612cde60008383613015565b612d2f81600160008573ffffffffffffffffffffffffffffffffffffffff1673ffffffffffffffffffffffffffffffffffffffff16815260200190815260200160002061303490919063ffffffff16565b50612d468183600261304e9092919063ffffffff16565b50808273ffffffffffffffffffffffffffffffffffffffff16600073ffffffffffffffffffffffffffffffffffffffff167fddf252ad1be2c89b69c2b068fc378daa952ba7f163c4a11628f55a4df523b3ef60405160405180910390a45050565b612db082612687565b612e05576040517f08c379a000000000000000000000000000000000000000000000000000000000815260040180806020018281038252602c815260200180613c1a602c913960400191505060405180910390fd5b80600860008481526020019081526020016000209080519060200190612e2c9291906139d9565b505050565b612e3c84848461286e565b612e48848484846132a6565b612e9d576040517f08c379a0000000000000000000000000000000000000000000000000000000008152600401808060200182810382526032815260200180613a996032913960400191505060405180910390fd5b50505050565b60606000821415612eeb576040518060400160405280600181526020017f30000000000000000000000000000000000000000000000000000000000000008152509050612fe5565b600082905060005b60008214612f15578080600101915050600a8281612f0d57fe5b049150612ef3565b60608167ffffffffffffffff81118015612f2e57600080fd5b506040519080825280601f01601f191660200182016040528015612f615781602001600182028036833780820191505090505b50905060006001830390508593505b60008414612fdd57600a8481612f8257fe5b0660300160f81b82828060019003935081518110612f9c57fe5b60200101907effffffffffffffffffffffffffffffffffffffffffffffffffffffffffffff1916908160001a905350600a8481612fd557fe5b049350612f70565b819450505050505b919050565b6000612ffc836000018360001b6134bf565b905092915050565b600081600001805490509050919050565b505050565b600061302c836000018360001b6134e2565b905092915050565b6000613046836000018360001b6135ca565b905092915050565b600061307a846000018460001b8473ffffffffffffffffffffffffffffffffffffffff1660001b61363a565b90509392505050565b6000818360000180549050116130e4576040517f08c379a0000000000000000000000000000000000000000000000000000000008152600401808060200182810382526022815260200180613a776022913960400191505060405180910390fd5b8260000182815481106130f357fe5b9060005260206000200154905092915050565b60008082846000018054905011613168576040517f08c379a0000000000000000000000000000000000000000000000000000000008152600401808060200182810382526022815260200180613bcc6022913960400191505060405180910390fd5b600084600001848154811061317957fe5b906000526020600020906002020190508060000154816001015492509250509250929050565b60008084600101600085815260200190815260200160002054905060008114158390613266576040517f08c379a00000000000000000000000000000000000000000000000000000000081526004018080602001828103825283818151815260200191508051906020019080838360005b8381101561322b578082015181840152602081019050613210565b50505050905090810190601f1680156132585780820380516001836020036101000a031916815260200191505b509250505060405180910390fd5b5084600001600182038154811061327957fe5b9060005260206000209060020201600101549150509392505050565b600081600001805490509050919050565b60006132c78473ffffffffffffffffffffffffffffffffffffffff16613716565b6132d457600190506134b7565b606061343e63150b7a0260e01b6132e96126a4565b888787604051602401808573ffffffffffffffffffffffffffffffffffffffff1681526020018473ffffffffffffffffffffffffffffffffffffffff16815260200183815260200180602001828103825283818151815260200191508051906020019080838360005b8381101561336d578082015181840152602081019050613352565b50505050905090810190601f16801561339a5780820380516001836020036101000a031916815260200191505b5095505050505050604051602081830303815290604052907bffffffffffffffffffffffffffffffffffffffffffffffffffffffff19166020820180517bffffffffffffffffffffffffffffffffffffffffffffffffffffffff8381831617835250505050604051806060016040528060328152602001613a99603291398773ffffffffffffffffffffffffffffffffffffffff166137299092919063ffffffff16565b9050600081806020019051602081101561345757600080fd5b8101908080519060200190929190505050905063150b7a0260e01b7bffffffffffffffffffffffffffffffffffffffffffffffffffffffff1916817bffffffffffffffffffffffffffffffffffffffffffffffffffffffff191614925050505b949350505050565b600080836001016000848152602001908152602001600020541415905092915050565b600080836001016000848152602001908152602001600020549050600081146135be576000600182039050600060018660000180549050039050600086600001828154811061352d57fe5b906000526020600020015490508087600001848154811061354a57fe5b906000526020600020018190555060018301876001016000838152602001908152602001600020819055508660000180548061358257fe5b600190038181906000526020600020016000905590558660010160008781526020019081526020016000206000905560019450505050506135c4565b60009150505b92915050565b60006135d68383613741565b61362f578260000182908060018154018082558091505060019003906000526020600020016000909190919091505582600001805490508360010160008481526020019081526020016000208190555060019050613634565b600090505b92915050565b60008084600101600085815260200190815260200160002054905060008114156136e15784600001604051806040016040528086815260200185815250908060018154018082558091505060019003906000526020600020906002020160009091909190915060008201518160000155602082015181600101555050846000018054905085600101600086815260200190815260200160002081905550600191505061370f565b828560000160018303815481106136f457fe5b90600052602060002090600202016001018190555060009150505b9392505050565b600080823b905060008111915050919050565b60606137388484600085613764565b90509392505050565b600080836001016000848152602001908152602001600020541415905092915050565b6060824710156137bf576040517f08c379a0000000000000000000000000000000000000000000000000000000008152600401808060200182810382526026815260200180613aef6026913960400191505060405180910390fd5b6137c885613716565b61383a576040517f08c379a000000000000000000000000000000000000000000000000000000000815260040180806020018281038252601d8152602001807f416464726573733a2063616c6c20746f206e6f6e2d636f6e747261637400000081525060200191505060405180910390fd5b600060608673ffffffffffffffffffffffffffffffffffffffff1685876040518082805190602001908083835b6020831061388a5780518252602082019150602081019050602083039250613867565b6001836020036101000a03801982511681845116808217855250505050505090500191505060006040518083038185875af1925050503d80600081146138ec576040519150601f19603f3d011682016040523d82523d6000602084013e6138f1565b606091505b509150915061390182828661390d565b92505050949350505050565b6060831561391d578290506139d2565b6000835111156139305782518084602001fd5b816040517f08c379a00000000000000000000000000000000000000000000000000000000081526004018080602001828103825283818151815260200191508051906020019080838360005b8381101561399757808201518184015260208101905061397c565b50505050905090810190601f1680156139c45780820380516001836020036101000a031916815260200191505b509250505060405180910390fd5b9392505050565b828054600181600116156101000203166002900490600052602060002090601f016020900481019282601f10613a1a57805160ff1916838001178555613a48565b82800160010185558215613a48579182015b82811115613a47578251825591602001919060010190613a2c565b5b509050613a559190613a59565b5090565b5b80821115613a72576000816000905550600101613a5a565b509056fe456e756d657261626c655365743a20696e646578206f7574206f6620626f756e64734552433732313a207472616e7366657220746f206e6f6e20455243373231526563656976657220696d706c656d656e7465724552433732313a207472616e7366657220746f20746865207a65726f2061646472657373416464726573733a20696e73756666696369656e742062616c616e636520666f722063616c6c4552433732313a206f70657261746f7220717565727920666f72206e6f6e6578697374656e7420746f6b656e4552433732313a20617070726f76652063616c6c6572206973206e6f74206f776e6572206e6f7220617070726f76656420666f7220616c6c4552433732313a2062616c616e636520717565727920666f7220746865207a65726f20616464726573734552433732313a206f776e657220717565727920666f72206e6f6e6578697374656e7420746f6b656e456e756d657261626c654d61703a20696e646578206f7574206f6620626f756e64734552433732313a20617070726f76656420717565727920666f72206e6f6e6578697374656e7420746f6b656e4552433732314d657461646174613a2055524920736574206f66206e6f6e6578697374656e7420746f6b656e4552433732313a207472616e73666572206f6620746f6b656e2074686174206973206e6f74206f776e4552433732314d657461646174613a2055524920717565727920666f72206e6f6e6578697374656e7420746f6b656e4552433732313a20617070726f76616c20746f2063757272656e74206f776e65724552433732313a207472616e736665722063616c6c6572206973206e6f74206f776e6572206e6f7220617070726f766564a264697066735822122090542b3472799e79c63c1ae7e1573365e66cd3019c0caf9190ebfa593c6af75464736f6c634300060c00336080604052678ac7230489e8000060025534801561001c57600080fd5b506002546000803373ffffffffffffffffffffffffffffffffffffffff1673ffffffffffffffffffffffffffffffffffffffff16815260200190815260200160002081905550610d08806100716000396000f3fe608060405234801561001057600080fd5b506004361061009e5760003560e01c8063324536eb11610066578063324536eb1461024d57806370a082311461026b57806395d89b41146102c3578063a9059cbb14610346578063dd62ed3e146103aa5761009e565b806306fdde03146100a3578063095ea7b31461012657806318160ddd1461018a57806323b872dd146101a8578063313ce5671461022c575b600080fd5b6100ab610422565b6040518080602001828103825283818151815260200191508051906020019080838360005b838110156100eb5780820151818401526020810190506100d0565b50505050905090810190601f1680156101185780820380516001836020036101000a031916815260200191505b509250505060405180910390f35b6101726004803603604081101561013c57600080fd5b81019080803573ffffffffffffffffffffffffffffffffffffffff1690602001909291908035906020019092919050505061045b565b60405180821515815260200191505060405180910390f35b61019261054d565b6040518082815260200191505060405180910390f35b610214600480360360608110156101be57600080fd5b81019080803573ffffffffffffffffffffffffffffffffffffffff169060200190929190803573ffffffffffffffffffffffffffffffffffffffff16906020019092919080359060200190929190505050610557565b60405180821515815260200191505060405180910390f35b6102346108d2565b604051808260ff16815260200191505060405180910390f35b6102556108d7565b6040518082815260200191505060405180910390f35b6102ad6004803603602081101561028157600080fd5b81019080803573ffffffffffffffffffffffffffffffffffffffff1690602001909291905050506108dd565b6040518082815260200191505060405180910390f35b6102cb610925565b6040518080602001828103825283818151815260200191508051906020019080838360005b8381101561030b5780820151818401526020810190506102f0565b50505050905090810190601f1680156103385780820380516001836020036101000a031916815260200191505b509250505060405180910390f35b6103926004803603604081101561035c57600080fd5b81019080803573ffffffffffffffffffffffffffffffffffffffff1690602001909291908035906020019092919050505061095e565b60405180821515815260200191505060405180910390f35b61040c600480360360408110156103c057600080fd5b81019080803573ffffffffffffffffffffffffffffffffffffffff169060200190929190803573ffffffffffffffffffffffffffffffffffffffff169060200190929190505050610b40565b6040518082815260200191505060405180910390f35b6040518060400160405280600781526020017f4f4247436f696e0000000000000000000000000000000000000000000000000081525081565b600081600160003373ffffffffffffffffffffffffffffffffffffffff1673ffffffffffffffffffffffffffffffffffffffff16815260200190815260200160002060008573ffffffffffffffffffffffffffffffffffffffff1673ffffffffffffffffffffffffffffffffffffffff168152602001908152602001600020819055508273ffffffffffffffffffffffffffffffffffffffff163373ffffffffffffffffffffffffffffffffffffffff167f8c5be1e5ebec7d5bd14f71427d1e84f3dd0314c0f7b2291e5b200ac8c7c3b925846040518082815260200191505060405180910390a36001905092915050565b6000600254905090565b60008060008573ffffffffffffffffffffffffffffffffffffffff1673ffffffffffffffffffffffffffffffffffffffff168152602001908152602001600020548211156105a457600080fd5b600160008573ffffffffffffffffffffffffffffffffffffffff1673ffffffffffffffffffffffffffffffffffffffff16815260200190815260200160002060003373ffffffffffffffffffffffffffffffffffffffff1673ffffffffffffffffffffffffffffffffffffffff1681526020019081526020016000205482111561062d57600080fd5b61067e826000808773ffffffffffffffffffffffffffffffffffffffff1673ffffffffffffffffffffffffffffffffffffffff16815260200190815260200160002054610bc790919063ffffffff16565b6000808673ffffffffffffffffffffffffffffffffffffffff1673ffffffffffffffffffffffffffffffffffffffff1681526020019081526020016000208190555061074f82600160008773ffffffffffffffffffffffffffffffffffffffff1673ffffffffffffffffffffffffffffffffffffffff16815260200190815260200160002060003373ffffffffffffffffffffffffffffffffffffffff1673ffffffffffffffffffffffffffffffffffffffff16815260200190815260200160002054610bc790919063ffffffff16565b600160008673ffffffffffffffffffffffffffffffffffffffff1673ffffffffffffffffffffffffffffffffffffffff16815260200190815260200160002060003373ffffffffffffffffffffffffffffffffffffffff1673ffffffffffffffffffffffffffffffffffffffff16815260200190815260200160002081905550610820826000808673ffffffffffffffffffffffffffffffffffffffff1673ffffffffffffffffffffffffffffffffffffffff16815260200190815260200160002054610c4a90919063ffffffff16565b6000808573ffffffffffffffffffffffffffffffffffffffff1673ffffffffffffffffffffffffffffffffffffffff168152602001908152602001600020819055508273ffffffffffffffffffffffffffffffffffffffff168473ffffffffffffffffffffffffffffffffffffffff167fddf252ad1be2c89b69c2b068fc378daa952ba7f163c4a11628f55a4df523b3ef846040518082815260200191505060405180910390a3600190509392505050565b601281565b60025481565b60008060008373ffffffffffffffffffffffffffffffffffffffff1673ffffffffffffffffffffffffffffffffffffffff168152602001908152602001600020549050919050565b6040518060400160405280600381526020017f4f4247000000000000000000000000000000000000000000000000000000000081525081565b60008060003373ffffffffffffffffffffffffffffffffffffffff1673ffffffffffffffffffffffffffffffffffffffff168152602001908152602001600020548211156109ab57600080fd5b6109fc826000803373ffffffffffffffffffffffffffffffffffffffff1673ffffffffffffffffffffffffffffffffffffffff16815260200190815260200160002054610bc790919063ffffffff16565b6000803373ffffffffffffffffffffffffffffffffffffffff1673ffffffffffffffffffffffffffffffffffffffff16815260200190815260200160002081905550610a8f826000808673ffffffffffffffffffffffffffffffffffffffff1673ffffffffffffffffffffffffffffffffffffffff16815260200190815260200160002054610c4a90919063ffffffff16565b6000808573ffffffffffffffffffffffffffffffffffffffff1673ffffffffffffffffffffffffffffffffffffffff168152602001908152602001600020819055508273ffffffffffffffffffffffffffffffffffffffff163373ffffffffffffffffffffffffffffffffffffffff167fddf252ad1be2c89b69c2b068fc378daa952ba7f163c4a11628f55a4df523b3ef846040518082815260200191505060405180910390a36001905092915050565b6000600160008473ffffffffffffffffffffffffffffffffffffffff1673ffffffffffffffffffffffffffffffffffffffff16815260200190815260200160002060008373ffffffffffffffffffffffffffffffffffffffff1673ffffffffffffffffffffffffffffffffffffffff16815260200190815260200160002054905092915050565b600082821115610c3f576040517f08c379a000000000000000000000000000000000000000000000000000000000815260040180806020018281038252601e8152602001807f536166654d6174683a207375627472616374696f6e206f766572666c6f77000081525060200191505060405180910390fd5b818303905092915050565b600080828401905083811015610cc8576040517f08c379a000000000000000000000000000000000000000000000000000000000815260040180806020018281038252601b8152602001807f536166654d6174683a206164646974696f6e206f766572666c6f77000000000081525060200191505060405180910390fd5b809150509291505056fea264697066735822122080d933104663abed91863f284ba414b4de33994c97a62b2f0e8e0a7c9171a62764736f6c634300060c0033",
  "immutableReferences": {},
  "source": "// SPDX-License-Identifier: MIT\r\npragma solidity ^0.6.0;\r\n\r\nimport \"@openzeppelin/contracts/token/ERC721/ERC721.sol\";\r\n\r\ninterface IERC20 {\r\n    function totalSupply() external view returns (uint256);\r\n    function balanceOf(address account) external view returns (uint256);\r\n    function allowance(address owner, address spender) external view returns (uint256);\r\n\r\n    function transfer(address recipient, uint256 amount) external returns (bool);\r\n    function approve(address spender, uint256 amount) external returns (bool);\r\n    function transferFrom(address sender, address recipient, uint256 amount) external returns (bool);\r\n\r\n    event Transfer(address indexed from, address indexed to, uint256 value);\r\n    event Approval(address indexed owner, address indexed spender, uint256 value);\r\n}\r\n\r\ncontract OBGGovernance is IERC20 {\r\n\r\n    // This is where we set token details\r\n    string public constant name = \"OBGCoin\";\r\n    string public constant symbol = \"OBG\";\r\n    uint8 public constant decimals = 18;\r\n\r\n    // Shout out to the blockchain if something is Approved or Transfered\r\n    event Approval(address indexed tokenOwner, address indexed spender, uint tokens);\r\n    event Transfer(address indexed from, address indexed to, uint tokens);\r\n\r\n    // Keep track of balances and allowance\r\n    mapping(address => uint256) balances;\r\n\r\n    mapping(address => mapping (address => uint256)) allowed;\r\n\r\n    uint256 public totalSupply_ = 10 * 10**18;\r\n\r\n    // We create/declare this library below\r\n    using SafeMath for uint256;\r\n\r\n    // Contract Deployer gets total Supply\r\n    constructor() public {\r\n        balances[msg.sender] = totalSupply_;\r\n    }\r\n\r\n    function totalSupply() public override view returns (uint256) {\r\n        return totalSupply_;\r\n    }\r\n\r\n    function balanceOf(address tokenOwner) public override view returns (uint256) {\r\n        return balances[tokenOwner];\r\n    }\r\n\r\n    function transfer(address reciever, uint256 numTokens) public override returns (bool) {\r\n        require(numTokens <= balances[msg.sender]);\r\n        balances[msg.sender] = balances[msg.sender].sub(numTokens);\r\n        balances[reciever] = balances[reciever].add(numTokens);\r\n        emit Transfer(msg.sender, reciever, numTokens);\r\n        return true;\r\n    }\r\n\r\n    function approve(address delegate, uint256 numTokens) public override returns (bool) {\r\n        allowed[msg.sender][delegate] = numTokens;\r\n        emit Approval(msg.sender, delegate, numTokens);\r\n        return true;\r\n    }\r\n\r\n    function allowance(address owner, address delegate) public override view returns (uint) {\r\n        return allowed[owner][delegate];\r\n    }\r\n\r\n    function transferFrom(address owner, address buyer, uint256 numTokens) public override returns (bool) {\r\n        require(numTokens <= balances[owner]);\r\n        require(numTokens <= allowed[owner][msg.sender]);\r\n\r\n        balances[owner] = balances[owner].sub(numTokens);\r\n        allowed[owner][msg.sender] = allowed[owner][msg.sender].sub(numTokens);\r\n        balances[buyer] = balances[buyer].add(numTokens);\r\n        emit Transfer(owner, buyer, numTokens);\r\n        return true;\r\n    }\r\n}\r\n\r\n    contract UONFTMuseum is ERC721 {\r\n\r\n        IERC20 public token;\r\n\r\n        constructor() ERC721(\"UOMuseum\", \"UONFT\") public {\r\n            token = new OBGGovernance();\r\n        }\r\n\r\n        //Values for math (part 2)\r\n        uint256 public totalAuctionvalue;\r\n\r\n        struct User {\r\n            uint id;\r\n            bool auctionBuyer;\r\n            bool member;\r\n            uint256 OBGCoins;\r\n            uint256 auctionValue;\r\n        }\r\n\r\n        //Events for Data Structs\r\n        event Donate(uint256 amount);\r\n        event userCreated(uint id, bool auctionBuyer, bool member, uint256 OBGCoins, uint256 auctionValue);\r\n\r\n        //Events for ERC721\r\n        event auctionItembought(uint256 indexed id);\r\n\r\n        //mappings for Data Structs\r\n        uint256 numberOfusers;\r\n        mapping(uint => address) public idToaddress;\r\n        mapping(address => User) public users;\r\n\r\n        //mapping for ERC721\r\n        mapping(uint256 => string) private _tokenURIs;\r\n\r\n        //creates user data, definetly will delete this\r\n        function createUser() public {\r\n            numberOfusers++;\r\n            users[msg.sender] = User(numberOfusers - 1, false, true, 0, 0);\r\n            idToaddress[numberOfusers - 1] = msg.sender;\r\n            emit userCreated(numberOfusers - 1, false, true, 0, 0);\r\n        }\r\n\r\n        //sign-in a member (part 2)\r\n        function memberSignup(address memberAddress) public {\r\n            numberOfusers++;\r\n            uint256 obgtokens = 100000000000000000;\r\n            users[memberAddress] = User(numberOfusers - 1, false, true, obgtokens, 0);\r\n            idToaddress[numberOfusers -1] = memberAddress;\r\n            emit userCreated(numberOfusers - 1, true, false, obgtokens, 0);\r\n        }\r\n\r\n        //auctioneer buys existing NFT (part 2)\r\n        function auctioneerTransfer(address _from, address _to, uint256 _tokenId) public payable {\r\n            totalAuctionvalue += msg.value;\r\n            if (users[_to].member == true) {\r\n                safeTransferFrom(_from, _to, _tokenId);\r\n                users[_to].auctionBuyer = true;\r\n                users[_to].auctionValue = msg.value;\r\n            } else {\r\n                safeTransferFrom(_from, _to, _tokenId);\r\n                numberOfusers++;\r\n                users[_to] = User(numberOfusers - 1, true, false, 0, msg.value);\r\n                emit userCreated(numberOfusers - 1, true, false, 0, msg.value);\r\n            }\r\n        }\r\n\r\n        //auctioneer mints new NFT (part 2)\r\n        function auctioneerMint(address _to, string memory _tokenURI) public payable {\r\n            totalAuctionvalue += msg.value;\r\n            if (users[_to].member == true) {\r\n                mintAuctionnft(_to, _tokenURI);\r\n                users[_to].auctionBuyer = true;\r\n                users[_to].auctionValue = msg.value;\r\n            } else {\r\n                mintAuctionnft(_to, _tokenURI);\r\n                numberOfusers++;\r\n                users[_to] = User(numberOfusers - 1, true, false, 0, msg.value);\r\n                emit userCreated(numberOfusers - 1, true, false, 0, msg.value);\r\n            }\r\n        }\r\n\r\n        //Governance distribution (most likely will delete this)\r\n        function giveTokens() payable public {\r\n            uint256 tokens = 1000000000000000000;\r\n            uint256 obgCoinbalance = token.balanceOf(address(this));\r\n            require(tokens > 0, \"Not enough Tokens\");\r\n            require(tokens <= obgCoinbalance, \"Too many tokens\");\r\n            token.transfer(msg.sender, tokens);\r\n            User storage _user = users[msg.sender];\r\n            _user.OBGCoins = _user.OBGCoins + tokens;\r\n            emit Donate(tokens);\r\n        }\r\n\r\n        //NFT functions\r\n        function totalMint() public view returns(uint256) {\r\n            return totalSupply();\r\n        }\r\n\r\n        //Mint an NFT\r\n        function mintAuctionnft(address _to, string memory _tokenURI) public {\r\n            uint _tokenId = totalSupply().add(1);\r\n            _mint(_to, _tokenId);\r\n            _setTokenURI(_tokenId, _tokenURI);\r\n            giveTokens();\r\n            emit auctionItembought(_tokenId);\r\n        }\r\n    }\r\n",
  "sourcePath": "C:\\Users\\dhrus\\NFTmuseum\\NFTmuseum\\src\\contracts\\Museum.sol",
  "compiler": {
    "name": "solc",
    "version": "0.6.12+commit.27d51765.Emscripten.clang"
  },
  "schemaVersion": "3.4.3",
  "updatedAt": "2022-01-18T05:36:23.254Z",
  "networkType": "ethereum",
  "devdoc": {
    "kind": "dev",
    "methods": {
      "approve(address,uint256)": {
        "details": "See {IERC721-approve}."
      },
      "balanceOf(address)": {
        "details": "See {IERC721-balanceOf}."
      },
      "baseURI()": {
        "details": "Returns the base URI set via {_setBaseURI}. This will be automatically added as a prefix in {tokenURI} to each token's URI, or to the token ID if no specific URI is set for that token ID."
      },
      "getApproved(uint256)": {
        "details": "See {IERC721-getApproved}."
      },
      "isApprovedForAll(address,address)": {
        "details": "See {IERC721-isApprovedForAll}."
      },
      "name()": {
        "details": "See {IERC721Metadata-name}."
      },
      "ownerOf(uint256)": {
        "details": "See {IERC721-ownerOf}."
      },
      "safeTransferFrom(address,address,uint256)": {
        "details": "See {IERC721-safeTransferFrom}."
      },
      "safeTransferFrom(address,address,uint256,bytes)": {
        "details": "See {IERC721-safeTransferFrom}."
      },
      "setApprovalForAll(address,bool)": {
        "details": "See {IERC721-setApprovalForAll}."
      },
      "supportsInterface(bytes4)": {
        "details": "See {IERC165-supportsInterface}. Time complexity O(1), guaranteed to always use less than 30 000 gas."
      },
      "symbol()": {
        "details": "See {IERC721Metadata-symbol}."
      },
      "tokenByIndex(uint256)": {
        "details": "See {IERC721Enumerable-tokenByIndex}."
      },
      "tokenOfOwnerByIndex(address,uint256)": {
        "details": "See {IERC721Enumerable-tokenOfOwnerByIndex}."
      },
      "tokenURI(uint256)": {
        "details": "See {IERC721Metadata-tokenURI}."
      },
      "totalSupply()": {
        "details": "See {IERC721Enumerable-totalSupply}."
      },
      "transferFrom(address,address,uint256)": {
        "details": "See {IERC721-transferFrom}."
      }
    },
    "version": 1
  },
  "userdoc": {
    "kind": "user",
    "methods": {},
    "version": 1
  }
}